{
  "contractName": "Voting",
  "abi": [
    {
      "inputs": [],
      "name": "candidateCount",
      "outputs": [
        {
          "internalType": "uint256",
          "name": "",
          "type": "uint256"
        }
      ],
      "stateMutability": "view",
      "type": "function",
      "constant": true
    },
    {
      "inputs": [
        {
          "internalType": "uint256",
          "name": "",
          "type": "uint256"
        }
      ],
      "name": "candidates",
      "outputs": [
        {
          "internalType": "string",
          "name": "name",
          "type": "string"
        },
        {
          "internalType": "string",
          "name": "party",
          "type": "string"
        },
        {
          "internalType": "string",
          "name": "position",
          "type": "string"
        },
        {
          "internalType": "uint256",
          "name": "voteCount",
          "type": "uint256"
        }
      ],
      "stateMutability": "view",
      "type": "function",
      "constant": true
    },
    {
      "inputs": [],
      "name": "voterCount",
      "outputs": [
        {
          "internalType": "uint256",
          "name": "",
          "type": "uint256"
        }
      ],
      "stateMutability": "view",
      "type": "function",
      "constant": true
    },
    {
      "inputs": [
        {
          "internalType": "string",
          "name": "_name",
          "type": "string"
        },
        {
          "internalType": "string",
          "name": "_party",
          "type": "string"
        },
        {
          "internalType": "string",
          "name": "_position",
          "type": "string"
        }
      ],
      "name": "addCandidate",
      "outputs": [
        {
          "internalType": "bool",
          "name": "success",
          "type": "bool"
        }
      ],
      "stateMutability": "nonpayable",
      "type": "function"
    },
    {
      "inputs": [
        {
          "internalType": "uint256",
          "name": "candidateId",
          "type": "uint256"
        }
      ],
      "name": "vote",
      "outputs": [
        {
          "internalType": "bool",
          "name": "success",
          "type": "bool"
        }
      ],
      "stateMutability": "nonpayable",
      "type": "function"
    },
    {
      "inputs": [
        {
          "internalType": "uint256",
          "name": "candidateId",
          "type": "uint256"
        }
      ],
      "name": "getCandidate",
      "outputs": [
        {
          "internalType": "string",
          "name": "name",
          "type": "string"
        },
        {
          "internalType": "string",
          "name": "party",
          "type": "string"
        },
        {
          "internalType": "string",
          "name": "position",
          "type": "string"
        },
        {
          "internalType": "uint256",
          "name": "voteCount",
          "type": "uint256"
        }
      ],
      "stateMutability": "view",
      "type": "function",
      "constant": true
    },
    {
      "inputs": [
        {
          "internalType": "address",
          "name": "voter",
          "type": "address"
        },
        {
          "internalType": "string",
          "name": "position",
          "type": "string"
        }
      ],
      "name": "hasVotedForPosition",
      "outputs": [
        {
          "internalType": "bool",
          "name": "hasVoted",
          "type": "bool"
        }
      ],
      "stateMutability": "view",
      "type": "function",
      "constant": true
    }
  ],
  "bytecode": "0x608060405234801561001057600080fd5b50610d22806100206000396000f3fe608060405234801561001057600080fd5b506004361061007d5760003560e01c806342169e481161005b57806342169e48146100e15780638ad1782b146100f6578063a9a981a314610109578063ad71f8dc146101115761007d565b80630121b93f146100825780633477ee2e146100ab57806335b8e820146100ce575b600080fd5b6100956100903660046109f4565b610124565b6040516100a29190610aef565b60405180910390f35b6100be6100b93660046109f4565b610229565b6040516100a29493929190610afa565b6100be6100dc3660046109f4565b6103e9565b6100e961060b565b6040516100a29190610c2f565b610095610104366004610917565b610611565b6100e9610652565b61009561011f366004610970565b610658565b600060025482106101505760405162461bcd60e51b815260040161014790610b8e565b60405180910390fd5b600082815260208181526040808320338452600190925291829020915190919061017e906002840190610a54565b9081526040519081900360200190205460ff16156101ae5760405162461bcd60e51b815260040161014790610b45565b3360009081526001602081905260409182902091519091906101d4906002850190610a54565b908152604051908190036020019020805491151560ff1990921691909117905560038101805490600061020683610caf565b90915550506003805490600061021b83610caf565b909155506001949350505050565b60006020819052908152604090208054819061024490610c74565b80601f016020809104026020016040519081016040528092919081815260200182805461027090610c74565b80156102bd5780601f10610292576101008083540402835291602001916102bd565b820191906000526020600020905b8154815290600101906020018083116102a057829003601f168201915b5050505050908060010180546102d290610c74565b80601f01602080910402602001604051908101604052809291908181526020018280546102fe90610c74565b801561034b5780601f106103205761010080835404028352916020019161034b565b820191906000526020600020905b81548152906001019060200180831161032e57829003601f168201915b50505050509080600201805461036090610c74565b80601f016020809104026020016040519081016040528092919081815260200182805461038c90610c74565b80156103d95780601f106103ae576101008083540402835291602001916103d9565b820191906000526020600020905b8154815290600101906020018083116103bc57829003601f168201915b5050505050908060030154905084565b6060806060600060025485106104115760405162461bcd60e51b815260040161014790610b8e565b60008581526020819052604080822081516080810190925280548290829061043890610c74565b80601f016020809104026020016040519081016040528092919081815260200182805461046490610c74565b80156104b15780601f10610486576101008083540402835291602001916104b1565b820191906000526020600020905b81548152906001019060200180831161049457829003601f168201915b505050505081526020016001820180546104ca90610c74565b80601f01602080910402602001604051908101604052809291908181526020018280546104f690610c74565b80156105435780601f1061051857610100808354040283529160200191610543565b820191906000526020600020905b81548152906001019060200180831161052657829003601f168201915b5050505050815260200160028201805461055c90610c74565b80601f016020809104026020016040519081016040528092919081815260200182805461058890610c74565b80156105d55780601f106105aa576101008083540402835291602001916105d5565b820191906000526020600020905b8154815290600101906020018083116105b857829003601f168201915b50505091835250506003919091015460209182015281519082015160408301516060909301519199909850919650945092505050565b60035481565b6001600160a01b0382166000908152600160205260408082209051610637908490610a38565b9081526040519081900360200190205460ff16905092915050565b60025481565b6000805b60025481101561075557826040516020016106779190610a38565b60408051601f19818403018152828252805160209182012060008581528083529290922091926106ab926002019101610a54565b604051602081830303815290604052805190602001201480156107265750836040516020016106da9190610a38565b60408051601f198184030181528282528051602091820120600085815280835292909220919261070e926001019101610a54565b60405160208183030381529060405280519060200120145b156107435760405162461bcd60e51b815260040161014790610bc5565b8061074d81610caf565b91505061065c565b50604080516080810182528581526020808201869052818301859052600060608301819052600254815280825292909220815180519293919261079b92849201906107fd565b5060208281015180516107b492600185019201906107fd565b50604082015180516107d09160028401916020909101906107fd565b5060609190910151600390910155600280549060006107ee83610caf565b90915550600195945050505050565b82805461080990610c74565b90600052602060002090601f01602090048101928261082b5760008555610871565b82601f1061084457805160ff1916838001178555610871565b82800160010185558215610871579182015b82811115610871578251825591602001919060010190610856565b5061087d929150610881565b5090565b5b8082111561087d5760008155600101610882565b600082601f8301126108a6578081fd5b813567ffffffffffffffff808211156108c1576108c1610cd6565b604051601f8301601f1916810160200182811182821017156108e5576108e5610cd6565b6040528281528483016020018610156108fc578384fd5b82602086016020830137918201602001929092529392505050565b60008060408385031215610929578182fd5b82356001600160a01b038116811461093f578283fd5b9150602083013567ffffffffffffffff81111561095a578182fd5b61096685828601610896565b9150509250929050565b600080600060608486031215610984578081fd5b833567ffffffffffffffff8082111561099b578283fd5b6109a787838801610896565b945060208601359150808211156109bc578283fd5b6109c887838801610896565b935060408601359150808211156109dd578283fd5b506109ea86828701610896565b9150509250925092565b600060208284031215610a05578081fd5b5035919050565b60008151808452610a24816020860160208601610c44565b601f01601f19169290920160200192915050565b60008251610a4a818460208701610c44565b9190910192915050565b8154600090819060028104600180831680610a7057607f831692505b6020808410821415610a9057634e487b7160e01b87526022600452602487fd5b818015610aa45760018114610ab557610ae1565b60ff19861689528489019650610ae1565b610abe8a610c38565b885b86811015610ad95781548b820152908501908301610ac0565b505084890196505b509498975050505050505050565b901515815260200190565b600060808252610b0d6080830187610a0c565b8281036020840152610b1f8187610a0c565b90508281036040840152610b338186610a0c565b91505082606083015295945050505050565b60208082526029908201527f566f7465722068617320616c726561647920766f74656420666f722074686973604082015268103837b9b4ba34b7b760b91b606082015260800190565b60208082526018908201527f43616e64696461746520646f6573206e6f742065786973740000000000000000604082015260600190565b60208082526044908201527f412063616e6469646174652066726f6d207468652073616d652070617274792060408201527f697320616c72656164792072756e6e696e6720666f72207468697320706f73696060820152633a34b7b760e11b608082015260a00190565b90815260200190565b60009081526020902090565b60005b83811015610c5f578181015183820152602001610c47565b83811115610c6e576000848401525b50505050565b600281046001821680610c8857607f821691505b60208210811415610ca957634e487b7160e01b600052602260045260246000fd5b50919050565b6000600019821415610ccf57634e487b7160e01b81526011600452602481fd5b5060010190565b634e487b7160e01b600052604160045260246000fdfea2646970667358221220a6baf8d9e19c887ed1dbba705be5e527f597ac8c67ef076e0a86ccacfe3055fc64736f6c63430008000033",
  "immutableReferences": {},
  "source": "// SPDX-License-Identifier: MIT\r\npragma solidity ^0.8.0;\r\n\r\ncontract Voting {\r\n    struct CandidateInfo {\r\n        string name;\r\n        string party;\r\n        string position;\r\n        uint256 voteCount;\r\n    }\r\n\r\n    struct VoterInfo {\r\n        mapping(string => bool) hasVotedForPosition;  \r\n    }\r\n\r\n    mapping(uint256 => CandidateInfo) public candidates;\r\n    mapping(address => VoterInfo) private voters;\r\n\r\n    uint256 public candidateCount;\r\n    uint256 public voterCount; // Add voterCount to track the total number of voters\r\n\r\n   \r\n    function addCandidate(string memory _name, string memory _party, string memory _position) public returns (bool success) {\r\n        // Ensure the position is not already occupied\r\n        for (uint256 i = 0; i < candidateCount; i++) {\r\n            require(\r\n               !(keccak256(abi.encodePacked(candidates[i].position)) == keccak256(abi.encodePacked(_position)) &&\r\n              keccak256(abi.encodePacked(candidates[i].party)) == keccak256(abi.encodePacked(_party))),\r\n            \"A candidate from the same party is already running for this position\"\r\n            );\r\n        }\r\n\r\n        candidates[candidateCount] = CandidateInfo({\r\n            name: _name,\r\n            party: _party,\r\n            position: _position,\r\n            voteCount: 0\r\n        });\r\n\r\n        candidateCount++;\r\n        return true;\r\n    }\r\n\r\n   \r\n    function vote(uint256 candidateId) public returns (bool success) {\r\n        require(candidateId < candidateCount, \"Candidate does not exist\");\r\n\r\n        CandidateInfo storage candidate = candidates[candidateId];\r\n\r\n        // Check if the voter has already voted for this position\r\n        require(\r\n            !voters[msg.sender].hasVotedForPosition[candidate.position],\r\n            \"Voter has already voted for this position\"\r\n        );\r\n\r\n        // Mark the position as voted for this voter\r\n        voters[msg.sender].hasVotedForPosition[candidate.position] = true;\r\n\r\n        // Increment the candidate's vote count\r\n        candidate.voteCount++;\r\n\r\n        // Increment the total voter count\r\n        voterCount++; // Increment voter count when a vote is cast\r\n\r\n        return true;\r\n    }\r\n\r\n  \r\n    function getCandidate(uint256 candidateId) public view returns (string memory name, string memory party, string memory position, uint256 voteCount) {\r\n        require(candidateId < candidateCount, \"Candidate does not exist\");\r\n\r\n        CandidateInfo memory candidate = candidates[candidateId];\r\n        return (candidate.name, candidate.party, candidate.position, candidate.voteCount);\r\n    }\r\n\r\n  \r\n    function hasVotedForPosition(address voter, string memory position) public view returns (bool hasVoted) {\r\n        return voters[voter].hasVotedForPosition[position];\r\n    }\r\n}\r\n",
  "sourcePath": "C:\\Users\\Dell\\Desktop\\NEA\\contracts\\voting.sol",
  "compiler": {
    "name": "solc",
    "version": "0.8.0+commit.c7dfd78e.Emscripten.clang"
  },
  "schemaVersion": "3.4.16",
  "updatedAt": "2025-01-10T05:22:45.459Z",
  "networkType": "ethereum",
  "devdoc": {
    "kind": "dev",
    "methods": {},
    "version": 1
  },
  "userdoc": {
    "kind": "user",
    "methods": {},
    "version": 1
  }
}