{
  "contractName": "Voting",
  "abi": [
    {
      "inputs": [],
      "name": "candidateCount",
      "outputs": [
        {
          "internalType": "uint256",
          "name": "",
          "type": "uint256"
        }
      ],
      "stateMutability": "view",
      "type": "function",
      "constant": true
    },
    {
      "inputs": [
        {
          "internalType": "uint256",
          "name": "",
          "type": "uint256"
        }
      ],
      "name": "candidates",
      "outputs": [
        {
          "internalType": "string",
          "name": "name",
          "type": "string"
        },
        {
          "internalType": "string",
          "name": "party",
          "type": "string"
        },
        {
          "internalType": "string",
          "name": "position",
          "type": "string"
        },
        {
          "internalType": "uint256",
          "name": "voteCount",
          "type": "uint256"
        }
      ],
      "stateMutability": "view",
      "type": "function",
      "constant": true
    },
    {
      "inputs": [
        {
          "internalType": "string",
          "name": "_name",
          "type": "string"
        },
        {
          "internalType": "string",
          "name": "_party",
          "type": "string"
        },
        {
          "internalType": "string",
          "name": "_position",
          "type": "string"
        }
      ],
      "name": "addCandidate",
      "outputs": [
        {
          "internalType": "bool",
          "name": "success",
          "type": "bool"
        }
      ],
      "stateMutability": "nonpayable",
      "type": "function"
    },
    {
      "inputs": [
        {
          "internalType": "uint256",
          "name": "candidateId",
          "type": "uint256"
        }
      ],
      "name": "vote",
      "outputs": [
        {
          "internalType": "bool",
          "name": "success",
          "type": "bool"
        }
      ],
      "stateMutability": "nonpayable",
      "type": "function"
    },
    {
      "inputs": [
        {
          "internalType": "uint256",
          "name": "candidateId",
          "type": "uint256"
        }
      ],
      "name": "getCandidate",
      "outputs": [
        {
          "internalType": "string",
          "name": "name",
          "type": "string"
        },
        {
          "internalType": "string",
          "name": "party",
          "type": "string"
        },
        {
          "internalType": "string",
          "name": "position",
          "type": "string"
        },
        {
          "internalType": "uint256",
          "name": "voteCount",
          "type": "uint256"
        }
      ],
      "stateMutability": "view",
      "type": "function",
      "constant": true
    },
    {
      "inputs": [
        {
          "internalType": "string",
          "name": "position",
          "type": "string"
        }
      ],
      "name": "hasVotedForPosition",
      "outputs": [
        {
          "internalType": "bool",
          "name": "result",
          "type": "bool"
        }
      ],
      "stateMutability": "view",
      "type": "function",
      "constant": true
    }
  ],
  "bytecode": "0x608060405234801561001057600080fd5b50610c99806100206000396000f3fe608060405234801561001057600080fd5b50600436106100625760003560e01c80630121b93f146100675780630b786925146100905780633477ee2e146100a357806335b8e820146100c6578063a9a981a3146100d9578063ad71f8dc146100ee575b600080fd5b61007a610075366004610966565b610101565b6040516100879190610a61565b60405180910390f35b61007a61009e3660046108a7565b6101d4565b6100b66100b1366004610966565b610200565b6040516100879493929190610a6c565b6100b66100d4366004610966565b6103c0565b6100e16105e2565b6040516100879190610ba6565b61007a6100fc3660046108e2565b6105e8565b6000600254821061012d5760405162461bcd60e51b815260040161012490610ab7565b60405180910390fd5b6000828152602081905260409081902090516001906101509060028401906109c6565b9081526040519081900360200190205460ff16156101805760405162461bcd60e51b815260040161012490610b58565b6001808260020160405161019491906109c6565b908152604051908190036020019020805491151560ff199092169190911790556003810180549060006101c683610c26565b909155506001949350505050565b60006001826040516101e691906109aa565b9081526040519081900360200190205460ff169050919050565b60006020819052908152604090208054819061021b90610beb565b80601f016020809104026020016040519081016040528092919081815260200182805461024790610beb565b80156102945780601f1061026957610100808354040283529160200191610294565b820191906000526020600020905b81548152906001019060200180831161027757829003601f168201915b5050505050908060010180546102a990610beb565b80601f01602080910402602001604051908101604052809291908181526020018280546102d590610beb565b80156103225780601f106102f757610100808354040283529160200191610322565b820191906000526020600020905b81548152906001019060200180831161030557829003601f168201915b50505050509080600201805461033790610beb565b80601f016020809104026020016040519081016040528092919081815260200182805461036390610beb565b80156103b05780601f10610385576101008083540402835291602001916103b0565b820191906000526020600020905b81548152906001019060200180831161039357829003601f168201915b5050505050908060030154905084565b6060806060600060025485106103e85760405162461bcd60e51b815260040161012490610ab7565b60008581526020819052604080822081516080810190925280548290829061040f90610beb565b80601f016020809104026020016040519081016040528092919081815260200182805461043b90610beb565b80156104885780601f1061045d57610100808354040283529160200191610488565b820191906000526020600020905b81548152906001019060200180831161046b57829003601f168201915b505050505081526020016001820180546104a190610beb565b80601f01602080910402602001604051908101604052809291908181526020018280546104cd90610beb565b801561051a5780601f106104ef5761010080835404028352916020019161051a565b820191906000526020600020905b8154815290600101906020018083116104fd57829003601f168201915b5050505050815260200160028201805461053390610beb565b80601f016020809104026020016040519081016040528092919081815260200182805461055f90610beb565b80156105ac5780601f10610581576101008083540402835291602001916105ac565b820191906000526020600020905b81548152906001019060200180831161058f57829003601f168201915b50505091835250506003919091015460209182015281519082015160408301516060909301519199909850919650945092505050565b60025481565b6000805b6002548110156106e5578260405160200161060791906109aa565b60408051601f198184030181528282528051602091820120600085815280835292909220919261063b9260020191016109c6565b604051602081830303815290604052805190602001201480156106b657508360405160200161066a91906109aa565b60408051601f198184030181528282528051602091820120600085815280835292909220919261069e9260010191016109c6565b60405160208183030381529060405280519060200120145b156106d35760405162461bcd60e51b815260040161012490610aee565b806106dd81610c26565b9150506105ec565b50604080516080810182528581526020808201869052818301859052600060608301819052600254815280825292909220815180519293919261072b928492019061078d565b506020828101518051610744926001850192019061078d565b506040820151805161076091600284019160209091019061078d565b50606091909101516003909101556002805490600061077e83610c26565b90915550600195945050505050565b82805461079990610beb565b90600052602060002090601f0160209004810192826107bb5760008555610801565b82601f106107d457805160ff1916838001178555610801565b82800160010185558215610801579182015b828111156108015782518255916020019190600101906107e6565b5061080d929150610811565b5090565b5b8082111561080d5760008155600101610812565b600082601f830112610836578081fd5b813567ffffffffffffffff8082111561085157610851610c4d565b604051601f8301601f19168101602001828111828210171561087557610875610c4d565b60405282815284830160200186101561088c578384fd5b82602086016020830137918201602001929092529392505050565b6000602082840312156108b8578081fd5b813567ffffffffffffffff8111156108ce578182fd5b6108da84828501610826565b949350505050565b6000806000606084860312156108f6578182fd5b833567ffffffffffffffff8082111561090d578384fd5b61091987838801610826565b9450602086013591508082111561092e578384fd5b61093a87838801610826565b9350604086013591508082111561094f578283fd5b5061095c86828701610826565b9150509250925092565b600060208284031215610977578081fd5b5035919050565b60008151808452610996816020860160208601610bbb565b601f01601f19169290920160200192915050565b600082516109bc818460208701610bbb565b9190910192915050565b81546000908190600281046001808316806109e257607f831692505b6020808410821415610a0257634e487b7160e01b87526022600452602487fd5b818015610a165760018114610a2757610a53565b60ff19861689528489019650610a53565b610a308a610baf565b885b86811015610a4b5781548b820152908501908301610a32565b505084890196505b509498975050505050505050565b901515815260200190565b600060808252610a7f608083018761097e565b8281036020840152610a91818761097e565b90508281036040840152610aa5818661097e565b91505082606083015295945050505050565b60208082526018908201527f43616e64696461746520646f6573206e6f742065786973740000000000000000604082015260600190565b60208082526044908201527f412063616e6469646174652066726f6d207468652073616d652070617274792060408201527f697320616c72656164792072756e6e696e6720666f72207468697320706f73696060820152633a34b7b760e11b608082015260a00190565b6020808252602e908201527f4120766f74652068617320616c7265616479206265656e206361737420666f7260408201526d103a3434b9903837b9b4ba34b7b760911b606082015260800190565b90815260200190565b60009081526020902090565b60005b83811015610bd6578181015183820152602001610bbe565b83811115610be5576000848401525b50505050565b600281046001821680610bff57607f821691505b60208210811415610c2057634e487b7160e01b600052602260045260246000fd5b50919050565b6000600019821415610c4657634e487b7160e01b81526011600452602481fd5b5060010190565b634e487b7160e01b600052604160045260246000fdfea26469706673582212203518488a1222f7ab3576d6dbd6d4900169509594086117ab3b052859a3a8c46a64736f6c63430008000033",
  "immutableReferences": {},
  "source": "// SPDX-License-Identifier: MIT\r\npragma solidity ^0.8.0;\r\n\r\ncontract Voting {\r\n    struct CandidateInfo {\r\n        string name;\r\n        string party;\r\n        string position;\r\n        uint256 voteCount;\r\n    }\r\n\r\n    mapping(uint256 => CandidateInfo) public candidates;\r\n    mapping(string => bool) private positionVoted; // Renamed mapping\r\n    uint256 public candidateCount;\r\n\r\n    \r\n    function addCandidate(\r\n        string memory _name,\r\n        string memory _party,\r\n        string memory _position\r\n    ) public returns (bool success) {\r\n        for (uint256 i = 0; i < candidateCount; i++) {\r\n            require(\r\n                !(keccak256(abi.encodePacked(candidates[i].position)) ==\r\n                    keccak256(abi.encodePacked(_position)) &&\r\n                  keccak256(abi.encodePacked(candidates[i].party)) ==\r\n                    keccak256(abi.encodePacked(_party))),\r\n                \"A candidate from the same party is already running for this position\"\r\n            );\r\n        }\r\n\r\n        candidates[candidateCount] = CandidateInfo({\r\n            name: _name,\r\n            party: _party,\r\n            position: _position,\r\n            voteCount: 0\r\n        });\r\n\r\n        candidateCount++;\r\n        return true;\r\n    }\r\n\r\n   \r\n    function vote(uint256 candidateId) public returns (bool success) {\r\n        require(candidateId < candidateCount, \"Candidate does not exist\");\r\n\r\n        CandidateInfo storage candidate = candidates[candidateId];\r\n        require(\r\n            !positionVoted[candidate.position],\r\n            \"A vote has already been cast for this position\"\r\n        );\r\n\r\n        positionVoted[candidate.position] = true; // Mark this position as voted\r\n        candidate.voteCount++;\r\n        return true;\r\n    }\r\n\r\n    \r\n    function getCandidate(uint256 candidateId)\r\n        public\r\n        view\r\n        returns (\r\n            string memory name,\r\n            string memory party,\r\n            string memory position,\r\n            uint256 voteCount\r\n        )\r\n    {\r\n        require(candidateId < candidateCount, \"Candidate does not exist\");\r\n\r\n        CandidateInfo memory candidate = candidates[candidateId];\r\n        return (\r\n            candidate.name,\r\n            candidate.party,\r\n            candidate.position,\r\n            candidate.voteCount\r\n        );\r\n    }\r\n\r\n    \r\n    function hasVotedForPosition(string memory position)\r\n        public\r\n        view\r\n        returns (bool result)\r\n    {\r\n        return positionVoted[position];\r\n    }\r\n}\r\n",
  "sourcePath": "C:\\Users\\Dell\\Desktop\\NEA\\contracts\\voting.sol",
  "compiler": {
    "name": "solc",
    "version": "0.8.0+commit.c7dfd78e.Emscripten.clang"
  },
  "schemaVersion": "3.4.16",
  "updatedAt": "2025-01-21T11:32:45.947Z",
  "networkType": "ethereum",
  "devdoc": {
    "kind": "dev",
    "methods": {},
    "version": 1
  },
  "userdoc": {
    "kind": "user",
    "methods": {},
    "version": 1
  }
}