{
  "contractName": "Voting",
  "abi": [
    {
      "inputs": [],
      "name": "candidateCount",
      "outputs": [
        {
          "internalType": "uint256",
          "name": "",
          "type": "uint256"
        }
      ],
      "stateMutability": "view",
      "type": "function",
      "constant": true
    },
    {
      "inputs": [
        {
          "internalType": "uint256",
          "name": "",
          "type": "uint256"
        }
      ],
      "name": "candidates",
      "outputs": [
        {
          "internalType": "string",
          "name": "name",
          "type": "string"
        },
        {
          "internalType": "string",
          "name": "party",
          "type": "string"
        },
        {
          "internalType": "string",
          "name": "position",
          "type": "string"
        },
        {
          "internalType": "uint256",
          "name": "voteCount",
          "type": "uint256"
        }
      ],
      "stateMutability": "view",
      "type": "function",
      "constant": true
    },
    {
      "inputs": [],
      "name": "voterCount",
      "outputs": [
        {
          "internalType": "uint256",
          "name": "",
          "type": "uint256"
        }
      ],
      "stateMutability": "view",
      "type": "function",
      "constant": true
    },
    {
      "inputs": [
        {
          "internalType": "string",
          "name": "_name",
          "type": "string"
        },
        {
          "internalType": "string",
          "name": "_party",
          "type": "string"
        },
        {
          "internalType": "string",
          "name": "_position",
          "type": "string"
        }
      ],
      "name": "addCandidate",
      "outputs": [
        {
          "internalType": "bool",
          "name": "success",
          "type": "bool"
        }
      ],
      "stateMutability": "nonpayable",
      "type": "function"
    },
    {
      "inputs": [
        {
          "internalType": "uint256",
          "name": "candidateId",
          "type": "uint256"
        }
      ],
      "name": "vote",
      "outputs": [
        {
          "internalType": "bool",
          "name": "success",
          "type": "bool"
        }
      ],
      "stateMutability": "nonpayable",
      "type": "function"
    },
    {
      "inputs": [
        {
          "internalType": "uint256",
          "name": "candidateId",
          "type": "uint256"
        }
      ],
      "name": "getCandidate",
      "outputs": [
        {
          "internalType": "string",
          "name": "name",
          "type": "string"
        },
        {
          "internalType": "string",
          "name": "party",
          "type": "string"
        },
        {
          "internalType": "string",
          "name": "position",
          "type": "string"
        },
        {
          "internalType": "uint256",
          "name": "voteCount",
          "type": "uint256"
        }
      ],
      "stateMutability": "view",
      "type": "function",
      "constant": true
    },
    {
      "inputs": [
        {
          "internalType": "address",
          "name": "voter",
          "type": "address"
        },
        {
          "internalType": "string",
          "name": "position",
          "type": "string"
        }
      ],
      "name": "hasVotedForPosition",
      "outputs": [
        {
          "internalType": "bool",
          "name": "result",
          "type": "bool"
        }
      ],
      "stateMutability": "view",
      "type": "function",
      "constant": true
    },
    {
      "inputs": [
        {
          "internalType": "address",
          "name": "voter",
          "type": "address"
        }
      ],
      "name": "hasVoted",
      "outputs": [
        {
          "internalType": "bool",
          "name": "result",
          "type": "bool"
        }
      ],
      "stateMutability": "view",
      "type": "function",
      "constant": true
    }
  ],
  "bytecode": "0x608060405234801561001057600080fd5b50610dc7806100206000396000f3fe608060405234801561001057600080fd5b50600436106100885760003560e01c806342169e481161005b57806342169e48146100ff5780638ad1782b14610114578063a9a981a314610127578063ad71f8dc1461012f57610088565b80630121b93f1461008d57806309eef43e146100b65780633477ee2e146100c957806335b8e820146100ec575b600080fd5b6100a061009b366004610a99565b610142565b6040516100ad9190610b94565b60405180910390f35b6100a06100c43660046109a8565b610281565b6100dc6100d7366004610a99565b6102a3565b6040516100ad9493929190610b9f565b6100dc6100fa366004610a99565b610463565b610107610685565b6040516100ad9190610cd4565b6100a06101223660046109c9565b61068b565b6101076106cc565b6100a061013d366004610a15565b6106d2565b6000600254821061016e5760405162461bcd60e51b815260040161016590610c33565b60405180910390fd5b600082815260208181526040808320338452600190925291829020915190919061019c906002840190610af9565b9081526040519081900360200190205460ff16156101cc5760405162461bcd60e51b815260040161016590610bea565b3360009081526001602081905260409182902091519091906101f2906002850190610af9565b908152604051908190036020019020805491151560ff1990921691909117905560038101805490600061022483610d54565b9091555050336000908152600160208190526040909120015460ff166102765733600090815260016020819052604082208101805460ff19169091179055600380549161027083610d54565b91905055505b60019150505b919050565b6001600160a01b03166000908152600160208190526040909120015460ff1690565b6000602081905290815260409020805481906102be90610d19565b80601f01602080910402602001604051908101604052809291908181526020018280546102ea90610d19565b80156103375780601f1061030c57610100808354040283529160200191610337565b820191906000526020600020905b81548152906001019060200180831161031a57829003601f168201915b50505050509080600101805461034c90610d19565b80601f016020809104026020016040519081016040528092919081815260200182805461037890610d19565b80156103c55780601f1061039a576101008083540402835291602001916103c5565b820191906000526020600020905b8154815290600101906020018083116103a857829003601f168201915b5050505050908060020180546103da90610d19565b80601f016020809104026020016040519081016040528092919081815260200182805461040690610d19565b80156104535780601f1061042857610100808354040283529160200191610453565b820191906000526020600020905b81548152906001019060200180831161043657829003601f168201915b5050505050908060030154905084565b60608060606000600254851061048b5760405162461bcd60e51b815260040161016590610c33565b6000858152602081905260408082208151608081019092528054829082906104b290610d19565b80601f01602080910402602001604051908101604052809291908181526020018280546104de90610d19565b801561052b5780601f106105005761010080835404028352916020019161052b565b820191906000526020600020905b81548152906001019060200180831161050e57829003601f168201915b5050505050815260200160018201805461054490610d19565b80601f016020809104026020016040519081016040528092919081815260200182805461057090610d19565b80156105bd5780601f10610592576101008083540402835291602001916105bd565b820191906000526020600020905b8154815290600101906020018083116105a057829003601f168201915b505050505081526020016002820180546105d690610d19565b80601f016020809104026020016040519081016040528092919081815260200182805461060290610d19565b801561064f5780601f106106245761010080835404028352916020019161064f565b820191906000526020600020905b81548152906001019060200180831161063257829003601f168201915b50505091835250506003919091015460209182015281519082015160408301516060909301519199909850919650945092505050565b60035481565b6001600160a01b03821660009081526001602052604080822090516106b1908490610add565b9081526040519081900360200190205460ff16905092915050565b60025481565b6000805b6002548110156107cf57826040516020016106f19190610add565b60408051601f1981840301815282825280516020918201206000858152808352929092209192610725926002019101610af9565b604051602081830303815290604052805190602001201480156107a05750836040516020016107549190610add565b60408051601f1981840301815282825280516020918201206000858152808352929092209192610788926001019101610af9565b60405160208183030381529060405280519060200120145b156107bd5760405162461bcd60e51b815260040161016590610c6a565b806107c781610d54565b9150506106d6565b5060408051608081018252858152602080820186905281830185905260006060830181905260025481528082529290922081518051929391926108159284920190610877565b50602082810151805161082e9260018501920190610877565b506040820151805161084a916002840191602090910190610877565b50606091909101516003909101556002805490600061086883610d54565b90915550600195945050505050565b82805461088390610d19565b90600052602060002090601f0160209004810192826108a557600085556108eb565b82601f106108be57805160ff19168380011785556108eb565b828001600101855582156108eb579182015b828111156108eb5782518255916020019190600101906108d0565b506108f79291506108fb565b5090565b5b808211156108f757600081556001016108fc565b80356001600160a01b038116811461027c57600080fd5b600082601f830112610937578081fd5b813567ffffffffffffffff8082111561095257610952610d7b565b604051601f8301601f19168101602001828111828210171561097657610976610d7b565b60405282815284830160200186101561098d578384fd5b82602086016020830137918201602001929092529392505050565b6000602082840312156109b9578081fd5b6109c282610910565b9392505050565b600080604083850312156109db578081fd5b6109e483610910565b9150602083013567ffffffffffffffff8111156109ff578182fd5b610a0b85828601610927565b9150509250929050565b600080600060608486031215610a29578081fd5b833567ffffffffffffffff80821115610a40578283fd5b610a4c87838801610927565b94506020860135915080821115610a61578283fd5b610a6d87838801610927565b93506040860135915080821115610a82578283fd5b50610a8f86828701610927565b9150509250925092565b600060208284031215610aaa578081fd5b5035919050565b60008151808452610ac9816020860160208601610ce9565b601f01601f19169290920160200192915050565b60008251610aef818460208701610ce9565b9190910192915050565b8154600090819060028104600180831680610b1557607f831692505b6020808410821415610b3557634e487b7160e01b87526022600452602487fd5b818015610b495760018114610b5a57610b86565b60ff19861689528489019650610b86565b610b638a610cdd565b885b86811015610b7e5781548b820152908501908301610b65565b505084890196505b509498975050505050505050565b901515815260200190565b600060808252610bb26080830187610ab1565b8281036020840152610bc48187610ab1565b90508281036040840152610bd88186610ab1565b91505082606083015295945050505050565b60208082526029908201527f566f7465722068617320616c726561647920766f74656420666f722074686973604082015268103837b9b4ba34b7b760b91b606082015260800190565b60208082526018908201527f43616e64696461746520646f6573206e6f742065786973740000000000000000604082015260600190565b60208082526044908201527f412063616e6469646174652066726f6d207468652073616d652070617274792060408201527f697320616c72656164792072756e6e696e6720666f72207468697320706f73696060820152633a34b7b760e11b608082015260a00190565b90815260200190565b60009081526020902090565b60005b83811015610d04578181015183820152602001610cec565b83811115610d13576000848401525b50505050565b600281046001821680610d2d57607f821691505b60208210811415610d4e57634e487b7160e01b600052602260045260246000fd5b50919050565b6000600019821415610d7457634e487b7160e01b81526011600452602481fd5b5060010190565b634e487b7160e01b600052604160045260246000fdfea264697066735822122048ca5ce76d50735b7ad3e103161e263a9eed6a60932d8d12df09a5257f9eaef464736f6c63430008000033",
  "immutableReferences": {},
  "source": "// SPDX-License-Identifier: MIT\r\npragma solidity ^0.8.0;\r\n\r\ncontract Voting {\r\n    struct CandidateInfo {\r\n        string name;\r\n        string party;\r\n        string position;\r\n        uint256 voteCount;\r\n    }\r\n\r\n    struct VoterInfo {\r\n        mapping(string => bool) hasVotedForPosition;\r\n        bool hasVoted;\r\n    }\r\n\r\n    mapping(uint256 => CandidateInfo) public candidates;\r\n    mapping(address => VoterInfo) private voters;\r\n\r\n    uint256 public candidateCount;\r\n    uint256 public voterCount;\r\n\r\n    function addCandidate(string memory _name, string memory _party, string memory _position) public returns (bool success) {\r\n        for (uint256 i = 0; i < candidateCount; i++) {\r\n            require(\r\n                !(keccak256(abi.encodePacked(candidates[i].position)) == keccak256(abi.encodePacked(_position)) &&\r\n                  keccak256(abi.encodePacked(candidates[i].party)) == keccak256(abi.encodePacked(_party))),\r\n                \"A candidate from the same party is already running for this position\"\r\n            );\r\n        }\r\n\r\n        candidates[candidateCount] = CandidateInfo({\r\n            name: _name,\r\n            party: _party,\r\n            position: _position,\r\n            voteCount: 0\r\n        });\r\n\r\n        candidateCount++;\r\n        return true;\r\n    }\r\n\r\n    function vote(uint256 candidateId) public returns (bool success) {\r\n        require(candidateId < candidateCount, \"Candidate does not exist\");\r\n\r\n        CandidateInfo storage candidate = candidates[candidateId];\r\n\r\n        require(\r\n            !voters[msg.sender].hasVotedForPosition[candidate.position],\r\n            \"Voter has already voted for this position\"\r\n        );\r\n\r\n        voters[msg.sender].hasVotedForPosition[candidate.position] = true;\r\n        candidate.voteCount++;\r\n\r\n        if (!voters[msg.sender].hasVoted) {\r\n            voters[msg.sender].hasVoted = true;\r\n            voterCount++;\r\n        }\r\n\r\n        return true;\r\n    }\r\n\r\n    function getCandidate(uint256 candidateId) public view returns (string memory name, string memory party, string memory position, uint256 voteCount) {\r\n        require(candidateId < candidateCount, \"Candidate does not exist\");\r\n\r\n        CandidateInfo memory candidate = candidates[candidateId];\r\n        return (candidate.name, candidate.party, candidate.position, candidate.voteCount);\r\n    }\r\n\r\n    function hasVotedForPosition(address voter, string memory position) public view returns (bool result) {\r\n        return voters[voter].hasVotedForPosition[position];\r\n    }\r\n\r\n    function hasVoted(address voter) public view returns (bool result) {\r\n        return voters[voter].hasVoted;\r\n    }\r\n}\r\n",
  "sourcePath": "C:\\Users\\Dell\\Desktop\\NEA\\contracts\\voting.sol",
  "compiler": {
    "name": "solc",
    "version": "0.8.0+commit.c7dfd78e.Emscripten.clang"
  },
  "schemaVersion": "3.4.16",
  "updatedAt": "2025-01-12T10:03:13.124Z",
  "networkType": "ethereum",
  "devdoc": {
    "kind": "dev",
    "methods": {},
    "version": 1
  },
  "userdoc": {
    "kind": "user",
    "methods": {},
    "version": 1
  }
}